{
  "transactions": [
    {
      "hash": "0xcb533038c458757d327b9e729a425fe93ffaba26305c6c6856f83f7f8c3e846e",
      "transactionType": "CALL",
      "contractName": null,
      "contractAddress": "0xf97d85df6c4d2b032645ee2c2d24423ed66793f4",
      "function": "registerClaim(address,string,string,string)",
      "arguments": [
        "0x0429A2Da7884CA14E53142988D5845952fE4DF6a",
        "gabrielantony56@gmail.com",
        "ETHGlobal Trifecta - Agents",
        "WalletSheets"
      ],
      "transaction": {
        "from": "0x0429a2da7884ca14e53142988d5845952fe4df6a",
        "to": "0xf97d85df6c4d2b032645ee2c2d24423ed66793f4",
        "gas": "0x21aef",
        "value": "0x0",
        "input": "0x514d71f40000000000000000000000000429a2da7884ca14e53142988d5845952fe4df6a000000000000000000000000000000000000000000000000000000000000008000000000000000000000000000000000000000000000000000000000000000c0000000000000000000000000000000000000000000000000000000000000010000000000000000000000000000000000000000000000000000000000000000196761627269656c616e746f6e79353640676d61696c2e636f6d00000000000000000000000000000000000000000000000000000000000000000000000000001b455448476c6f62616c205472696665637461202d204167656e74730000000000000000000000000000000000000000000000000000000000000000000000000c57616c6c65745368656574730000000000000000000000000000000000000000",
        "nonce": "0x22e",
        "chainId": "0xaa36a7"
      },
      "additionalContracts": [],
      "isFixedGasLimit": false
    }
  ],
  "receipts": [
    {
      "status": "0x1",
      "cumulativeGasUsed": "0xa6ce01",
      "logs": [],
      "logsBloom": "0x00000000000000000000000000000000000000000000000000000000000000000000000000000000000000000000000000000000000000000000000000000000000000000000000000000000000000000000000000000000000000000000000000000000000000000000000000000000000000000000000000000000000000000000000000000000000000000000000000000000000000000000000000000000000000000000000000000000000000000000000000000000000000000000000000000000000000000000000000000000000000000000000000000000000000000000000000000000000000000000000000000000000000000000000000000000",
      "type": "0x2",
      "transactionHash": "0xcb533038c458757d327b9e729a425fe93ffaba26305c6c6856f83f7f8c3e846e",
      "transactionIndex": "0x53",
      "blockHash": "0x59fa31d471006e93483faa7185513cca5384f8c7feb16f8837b816db06f65e4f",
      "blockNumber": "0x80e31a",
      "gasUsed": "0x17081",
      "effectiveGasPrice": "0xf424b",
      "from": "0x0429a2da7884ca14e53142988d5845952fe4df6a",
      "to": "0xf97d85df6c4d2b032645ee2c2d24423ed66793f4",
      "contractAddress": null
    }
  ],
  "libraries": [],
  "pending": [],
  "returns": {},
  "timestamp": 1748699570,
  "chain": 11155111,
  "commit": "c2f9035"
}